{
  "_format": "hh-sol-artifact-1",
  "contractName": "NftCount",
  "sourceName": "contracts/NftCount.sol",
  "abi": [
    {
      "inputs": [],
      "name": "addNFT",
      "outputs": [],
      "stateMutability": "nonpayable",
      "type": "function"
    },
    {
      "inputs": [],
      "name": "checkTotalNFT",
      "outputs": [
        {
          "internalType": "uint256",
          "name": "",
          "type": "uint256"
        }
      ],
      "stateMutability": "view",
      "type": "function"
    },
    {
      "inputs": [],
      "name": "deleteNFT",
      "outputs": [],
      "stateMutability": "nonpayable",
      "type": "function"
    },
    {
      "inputs": [],
      "name": "numberOfNFT",
      "outputs": [
        {
          "internalType": "uint256",
          "name": "",
          "type": "uint256"
        }
      ],
      "stateMutability": "view",
      "type": "function"
    }
  ],
  "bytecode": "0x608060405234801561001057600080fd5b506101e7806100206000396000f3fe608060405234801561001057600080fd5b506004361061004c5760003560e01c80633748a5c2146100515780633d82faf01461006f5780638acc7b471461008d578063e02b87bb14610097575b600080fd5b6100596100a1565b60405161006691906100ff565b60405180910390f35b6100776100a7565b60405161008491906100ff565b60405180910390f35b6100956100b0565b005b61009f6100cb565b005b60005481565b60008054905090565b60016000808282546100c29190610149565b92505081905550565b60016000808282546100dd919061017d565b92505081905550565b6000819050919050565b6100f9816100e6565b82525050565b600060208201905061011460008301846100f0565b92915050565b7f4e487b7100000000000000000000000000000000000000000000000000000000600052601160045260246000fd5b6000610154826100e6565b915061015f836100e6565b92508282019050808211156101775761017661011a565b5b92915050565b6000610188826100e6565b9150610193836100e6565b92508282039050818111156101ab576101aa61011a565b5b9291505056fea2646970667358221220b87f3792e446afe6f4fd82cc840b856fda16567c97450ee4fc08871894a9462064736f6c63430008130033",
  "linkReferences": {},
  "deployedLinkReferences": {}
}